:020000040000FA
:100C00006CEF24F0F1EF2EF04BEF28F04CEC2EF0CF
:100C1000C582C5B2FED71200C0EF28F0D9CFE5FFDC
:100C2000E1CFD9FF00C0E5FF01C0E5FF02C0E5FF4D
:100C300003C0E5FF04C0E5FF05C0E5FF06C0E5FF12
:100C400007C0E5FF08C0E5FF09C0E5FF0AC0E5FFF2
:100C50000BC0E5FF0CC0E5FF0DC0E5FF0EC0E5FFD2
:100C60000FC0E5FF10C0E5FF11C0E5FF12C0E5FFB2
:100C700013C0E5FF14C0E5FF15C0E5FF16C0E5FF92
:100C800017C0E5FF18C0E5FF19C0E5FF020EDBCF76
:100C900000F0030EDBCF01F0040EDBCF02F0050EF7
:100CA000DBCF03F0060EDBCF04F0070EDBCF05F041
:100CB000080EDBCF06F0090EDBCF07F00A0EDBCF04
:100CC00008F0096A020E0A6E03C0E9FF04C0F3FFD0
:100CD000055095EC2EF00B6E0B50D8B4E1EF0AF0F6
:100CE0000C6A0B50250A02E0C8EF0AF00B6A0D6A85
:100CF000032A02E3044A052A03C0E9FF04C0F3FF04
:100D0000055095EC2EF00E6E0E50D8B4E1EF0AF0BF
:100D10000E50250A02E1C8EF0AF00E502D0A06E136
:100D2000032A02E3044A052A010E0B6E03C00EF0EB
:100D300004C00FF005C010F00EC0E9FF0FC0F3FFB4
:100D4000105095EC2EF0300A06E10E2A02E30F4A0D
:100D5000102A0B82F1D70EC0E9FF0FC0F3FF10502D
:100D600095EC2EF0116E300E115C13E33A0E115C0F
:100D700010E20D500A0DF3CF0DF0D00E11260D50DC
:100D8000126E115012240D6E0E2A02E30F4A102A21
:100D9000E2D70EC003F00FC004F010C005F00EC083
:100DA000E9FF0FC0F3FF105095EC2EF02E0A34E14E
:100DB0000E50010F036E000E0F20046E000E102067
:100DC000056E0A6A03C00EF004C00FF005C010F0F3
:100DD0000EC0E9FF0FC0F3FF105095EC2EF0116E1E
:100DE000300E115C13E33A0E115C10E20A500A0D4A
:100DF000F3CF0AF0D00E11260A50126E11501224B1
:100E00000A6E0E2A02E30F4A102AE2D70EC003F040
:100E10000FC004F010C005F003C0E9FF04C0F3FFE9
:100E2000055095EC2EF00E6E660A01E040D006509B
:100E3000040F0F6E000E0720106E000E0820116EBA
:100E40000FC006F010C007F011C008F0FC0E0F260E
:100E5000FF0E102211220FC0E9FF10C0F3FF115046
:100E6000A5EC2CF00F6EF3CF10F0F4CF11F0E9CF1A
:100E700012F00A50E56EE56A0B50E56E0D50E56E16
:100E80001250E56E1150E56E1050E56E0F50E56E94
:100E90000250E56E0150E56E0050E56E31EC0BF04E
:100EA0000F6E0B0EE1260F500926DBEF0AF00E50F5
:100EB000730A01E052D00650030F0F6E000E072098
:100EC000106E000E0820116E0FC006F010C007F063
:100ED00011C008F0FD0E0F26FF0E102211220FC0C8
:100EE000E9FF10C0F3FF11503BEC2DF00F6EF3CF74
:100EF00010F0F4CF11F00FC012F010C013F011C0B9
:100F000014F01010111007E012C00FF013C010F011
:100F100014C011F006D0000E116E470E106E240E94
:100F20000F6E0B50E56E0D50E56E1150E56E1050D2
:100F3000E56E0F50E56E0250E56E0150E56E005013
:100F4000E56E62EC18F00F6E080EE1260950106E87
:100F50000F501024096EDBEF0AF00E506C0A06E108
:100F6000032A02E3044A052A010E0C6E03C0E9FFBE
:100F700004C0F3FF055095EC2EF00E6E750A01E0EB
:100F80006CD00C5023E00650040F0F6E000E0720AB
:100F9000106E000E0820116E0FC006F010C007F092
:100FA00011C008F0FC0E0F26FF0E102211220FC0F8
:100FB000E9FF10C0F3FF1150A5EC2CF00F6EF3CF3A
:100FC00010F0F4CF11F0E9CF12F024D00650020F48
:100FD000136E000E0720146E000E0820156E13C04D
:100FE00006F014C007F015C008F0FE0E1326FF0E21
:100FF0001422152213C0E9FF14C0F3FF1550E6ECCC
:101000002DF0136EF3CF14F013C00FF014C010F0D6
:10101000116A126A610EE56EE56A0B50E56E0D50BD
:10102000E56EE56A0A0EE56E0C50E56E1250E56E4F
:101030001150E56E1050E56E0F50E56E0250E56EF2
:101040000150E56E0050E56E11EC0EF0136E0E0EC1
:10105000E12613500926DBEF0AF00E50640A04E083
:101060000E50690A01E075D00C5023E00650040FC1
:10107000136E000E0720146E000E0820156E13C0AC
:1010800006F014C007F015C008F0FC0E1326FF0E82
:101090001422152213C0E9FF14C0F3FF1550A5EC6C
:1010A0002CF0136EF3CF14F0F4CF15F0E9CF16F057
:1010B00024D00650020F176E000E0720186E000E87
:1010C0000820196E17C006F018C007F019C008F004
:1010D000FE0E1726FF0E1822192217C0E9FF18C0AE
:1010E000F3FF1950E6EC2DF0176EF3CF18F017C090
:1010F00013F018C014F0156A166A13C00FF014C06C
:1011000010F015C011F016C012F0610EE56EE56A20
:101110000B50E56E0D50E56E010EE56E0A0EE56EA4
:101120000C50E56E1250E56E1150E56E1050E56EF4
:101130000F50E56E0250E56E0150E56E0050E56E11
:1011400011EC0EF0136E0E0EE12613500926DBEFA4
:101150000AF00E50780A04E00E50700A01E073D0D5
:101160000C5023E00650040F136E000E0720146E7F
:10117000000E0820156E13C006F014C007F015C04D
:1011800008F0FC0E1326FF0E1422152213C0E9FFEF
:1011900014C0F3FF1550A5EC2CF0136EF3CF14F030
:1011A000F4CF15F0E9CF16F024D00650020F176ED9
:1011B000000E0720186E000E0820196E17C006F0EA
:1011C00018C007F019C008F0FE0E1726FF0E1822EF
:1011D000192217C0E9FF18C0F3FF1950E6EC2DF0F3
:1011E000176EF3CF18F017C013F018C014F0156A7B
:1011F000166A13C00FF014C010F015C011F016C01D
:1012000012F0610EE56EE56A0B50E56E0D50E56E6D
:10121000E56A100EE56E0C50E56E1250E56E115049
:10122000E56E1050E56E0F50E56E0250E56E015010
:10123000E56E0050E56E11EC0EF0136E0E0EE12619
:1012400013500926B8D10E50580A04E00E50500A27
:1012500001E073D00C5023E00650040F136E000E13
:101260000720146E000E0820156E13C006F014C07F
:1012700007F015C008F0FC0E1326FF0E14221522ED
:1012800013C0E9FF14C0F3FF1550A5EC2CF0136E4A
:10129000F3CF14F0F4CF15F0E9CF16F024D00650B8
:1012A000020F176E000E0720186E000E0820196E30
:1012B00017C006F018C007F019C008F0FE0E172678
:1012C000FF0E1822192217C0E9FF18C0F3FF1950AA
:1012D000E6EC2DF0176EF3CF18F017C013F018C01E
:1012E00014F0156A166A13C00FF014C010F015C080
:1012F00011F016C012F0410EE56EE56A0B50E56E76
:101300000D50E56EE56A100EE56E0C50E56E12505C
:10131000E56E1150E56E1050E56E0F50E56E02500F
:10132000E56E0150E56E0050E56E11EC0EF0136EA7
:101330000E0EE126135009263ED10E50620A01E03E
:1013400073D00C5023E00650040F136E000E0720DC
:10135000146E000E0820156E13C006F014C007F0BE
:1013600015C008F0FC0E1326FF0E1422152213C020
:10137000E9FF14C0F3FF1550A5EC2CF0136EF3CF6A
:1013800014F0F4CF15F0E9CF16F024D00650020F78
:10139000176E000E0720186E000E0820196E17C079
:1013A00006F018C007F019C008F0FE0E1726FF0E51
:1013B0001822192217C0E9FF18C0F3FF1950E6ECF4
:1013C0002DF0176EF3CF18F017C013F018C014F0FB
:1013D000156A166A13C00FF014C010F015C011F092
:1013E00016C012F0610EE56EE56A0B50E56E0D5009
:1013F000E56EE56A020EE56E0C50E56E1250E56E84
:101400001150E56E1050E56E0F50E56E0250E56E1E
:101410000150E56E0050E56E11EC0EF0136E0E0EED
:10142000E12613500926C7D00E506F0A01E073D091
:101430000C5023E00650040F136E000E0720146EAC
:10144000000E0820156E13C006F014C007F015C07A
:1014500008F0FC0E1326FF0E1422152213C0E9FF1C
:1014600014C0F3FF1550A5EC2CF0136EF3CF14F05D
:10147000F4CF15F0E9CF16F024D00650020F176E06
:10148000000E0720186E000E0820196E17C006F017
:1014900018C007F019C008F0FE0E1726FF0E18221C
:1014A000192217C0E9FF18C0F3FF1950E6EC2DF020
:1014B000176EF3CF18F017C013F018C014F0156AA8
:1014C000166A13C00FF014C010F015C011F016C04A
:1014D00012F0610EE56EE56A0B50E56E0D50E56E9B
:1014E000E56A080EE56E0C50E56E1250E56E11507F
:1014F000E56E1050E56E0F50E56E0250E56E01503E
:10150000E56E0050E56E11EC0EF00C6E0E0EE1264D
:101510000C50092650D00E50630A01E04CD0065002
:10152000020F0C6E000E07200E6E000E08200F6ECC
:101530000CC006F00EC007F00FC008F0FE0E0C261F
:10154000FF0E0E220F220CC0E9FF0EC0F3FF0F505A
:10155000E6EC2DF00501FD6FFE6B0B50E56E0D50B6
:10156000E56E800EE56E050EE56EFD0EE56E025031
:10157000E56E0150E56E0050E56E62EC18F00B6E02
:10158000080EE12609500C6E0B500C24096E13D086
:1015900003C0E9FF04C0F3FF055095EC2EF0E56EA3
:1015A0000250E56E0150E56E0050E56E9CEC1FF0B8
:1015B000040EE126092A032A02E3044A052A64EFFD
:1015C00006F000500110021014E000C0E9FF01C055
:1015D000F3FF02503BEC2DF0006EF3CF01F0F4CF9F
:1015E00002F0E56A00C0E9FF01C0F3FF0250FDEC24
:1015F0002EF00950E4CF19F0E4CF18F0E4CF17F043
:10160000E4CF16F0E4CF15F0E4CF14F0E4CF13F0FC
:10161000E4CF12F0E4CF11F0E4CF10F0E4CF0FF0FC
:10162000E4CF0EF0E4CF0DF0E4CF0CF0E4CF0BF0FC
:10163000E4CF0AF0E4CF09F0E4CF08F0E4CF07F0FC
:10164000E4CF06F0E4CF05F0E4CF04F0E4CF03F0FC
:10165000E4CF02F0E4CF01F0E4CF00F0E4CFD9FF13
:101660001200D9CFE5FFE1CFD9FF00C0E5FF01C0EF
:10167000E5FF02C0E5FF03C0E5FF04C0E5FF05C0CC
:10168000E5FF06C0E5FF07C0E5FF08C0E5FF09C0AC
:10169000E5FF0AC0E5FF0BC0E5FF0CC0E5FF0DC08C
:1016A000E5FF0EC0E5FF0FC0E5FF10C0E5FF11C06C
:1016B000E5FF12C0E5FF13C0E5FF14C0E5FF15C04C
:1016C000E5FF16C0E5FF17C0E5FF18C0E5FF19C02C
:1016D000E5FF1AC0E5FF1BC0E5FF1CC0E5FF1DC00C
:1016E000E5FF1EC0E5FF1FC0E5FF20C0E5FF020EBD
:1016F000DBCF00F0030EDBCF01F0040EDBCF02F0F6
:10170000050EDBCF03F0060EDBCF04F0070EDBCFB8
:1017100005F0080EDBCF06F0090EDBCF07F00A0E4E
:10172000DBCF08F00C0EDBCF09F00A6A0B6A0C6AFB
:101730000D6A0E6A0F6A106A116A050E136EBF0EEB
:10174000126E800E146E050E166ECB0E156E800E88
:10175000176E186A0B0E196E03500501DB6F0450EB
:10176000DC6F0550DD6F0650DE6FD880DEAFD8909D
:1017700023E3075012E008A210D02D0EE56E0250B0
:10178000E56E0150E56E0050E56E9CEC1FF0040E16
:10179000E126010E186E07060FD02D0EE56E12C061
:1017A000E9FF13C0F3FF1450FDEC2EF0122A02E300
:1017B000134A142A0A0E196E0501DD35DE35036E53
:1017C000046A810E0326DB51046EDC51056E7F0E28
:1017D000DD15066E1A6A068E0350800F610F21E335
:1017E0002B0E0501BF6F690EC06F6E0EC16F660EC6
:1017F000C26FC36B0850E56E0750E56E800EE56E54
:10180000050EE56EBF0EE56E0250E56E0150E56E09
:101810000050E56E62EC18F01B6E080EE1261B50BE
:10182000BBD10350800F970F09E20A6A0B6A0C6A5A
:101830000D6A0E6A0F6A106A116A9DD00350800FFC
:10184000690F25E303C01BF01C6A03BE1C68E90E88
:101850001B26D8A01C0604C00AF005C00BF006C069
:101860000CF01AC00DF01B5011E009E6E86CD8909E
:101870000A360B360C360D36010FFAE37CD0D890C1
:101880000D320C320B320A32010FFAE374D0D880D9
:1018900003AED890D8B04AD003C01BF01C6A03BE78
:1018A0001C681B5017081D6E000E1C5404C00AF063
:1018B00005C00BF006C00CF01AC00DF01D5011E071
:1018C00009E6E86CD8900D320C320B320A32010F67
:1018D000FAE307D0D8900A360B360C360D36010FD6
:1018E000FAE31B4A1C2A04C01DF005C01EF006C006
:1018F0001FF01AC020F01B5011E009E6E86CD890E8
:101900001D361E361F362036010FFAE307D0D89059
:1019100020321F321E321D32010FFAE31D500E6EAF
:101920001E500F6E1F50106E116A25D01A6A1B6A66
:1019300003BE1B68034A1B2A1B1E036CD8B41B2A58
:1019400004C00EF005C00FF006C010F01AC011F070
:10195000035011E009E6E86CD890113210320F32D2
:101960000E32010FFAE307D0D8900E360F3610363C
:101970001136010FFAE30A500B100C100D100FE195
:10198000300EE56E12C0E9FF13C0F3FF1450FDECFA
:101990002EF0122A02E3134A142A190678D015C031
:1019A00003F016C004F017C005F0066A19C015F060
:1019B0000A500B100C100D10D8B43CD0E56AE56A43
:1019C000E56A0A0EE56E0D50E56E0C50E56E0B50A3
:1019D000E56E0A50E56E4AEC1CF0166E080EE12624
:1019E000300E162616C0E5FF03C0E9FF04C0F3FF62
:1019F0000550FDEC2EF0032A02E3044A052AE56AAD
:101A0000E56AE56A0A0EE56E0D50E56E0C50E56E6E
:101A10000B50E56E0A50E56E0FEC1EF00A6EF3CF28
:101A20000BF0F4CF0CF0E9CF0DF0080EE126062AFA
:101A30001506BED715C019F012C00AF013C00BF07E
:101A400014C00CF006C00DF006060D501AE0FF0E93
:101A500003260422052203C0E9FF04C0F3FF05505A
:101A600095EC2EF00D6E0DC0E5FF0AC0E9FF0BC02E
:101A7000F3FF0C50FDEC2EF00A2AE4E30B4A0C2A8B
:101A8000E1D70AC012F00BC013F00CC014F0070E1F
:101A9000095C02E3060E096E0950195CD8A019C052
:101AA00009F0010E095CD8A057D02E0EE56E12C0C9
:101AB000E9FF13C0F3FF1450FDEC2EF0122A02E3ED
:101AC000134A142A12C003F013C004F014C005F026
:101AD000066A0950065C3AE20E500E240A6E0F3474
:101AE0000B6E10340C6E11340D6E0A500A260B3634
:101AF0000C360D360A500A260B360C360D360E50B3
:101B00000E24156E0F34166E1034176E1134196EC4
:101B100015500A240E6E16500B200F6E17500C2015
:101B2000106E19500D200A6E300E0A260AC0E5FF0D
:101B300003C0E9FF04C0F3FF0550FDEC2EF0032ABB
:101B400002E3044A052A116A062AC3D703C012F029
:101B500004C013F005C014F0E56A12C0E9FF13C019
:101B6000F3FF1450FDEC2EF00850E56E0750E56EC3
:101B7000800EE56E050EE56EBF0EE56E0250E56E59
:101B80000150E56E0050E56E62EC18F0006E080E34
:101B9000E126185000260050E4CF20F0E4CF1FF0DB
:101BA000E4CF1EF0E4CF1DF0E4CF1CF0E4CF1BF037
:101BB000E4CF1AF0E4CF19F0E4CF18F0E4CF17F037
:101BC000E4CF16F0E4CF15F0E4CF14F0E4CF13F037
:101BD000E4CF12F0E4CF11F0E4CF10F0E4CF0FF037
:101BE000E4CF0EF0E4CF0DF0E4CF0CF0E4CF0BF037
:101BF000E4CF0AF0E4CF09F0E4CF08F0E4CF07F037
:101C0000E4CF06F0E4CF05F0E4CF04F0E4CF03F036
:101C1000E4CF02F0E4CF01F0E4CF00F0E4CFD9FF4D
:101C20001200D9CFE5FFE1CFD9FF00C0E5FF01C029
:101C3000E5FF02C0E5FF03C0E5FF04C0E5FF05C006
:101C4000E5FF06C0E5FF07C0E5FF08C0E5FF09C0E6
:101C5000E5FF0AC0E5FF0BC0E5FF0CC0E5FF0DC0C6
:101C6000E5FF0EC0E5FF0FC0E5FF10C0E5FF11C0A6
:101C7000E5FF12C0E5FF13C0E5FF14C0E5FF15C086
:101C8000E5FF16C0E5FF17C0E5FF18C0E5FF19C066
:101C9000E5FF1AC0E5FF1BC0E5FF020EDBCF00F039
:101CA000030EDBCF01F0040EDBCF02F0050EDBCF1D
:101CB00003F0060EDBCF04F0070EDBCF05F0080EB5
:101CC000DBCF06F0090EDBCF07F00A0EDBCF08F002
:101CD0000B0EDBCF09F00C0EDBCF0AF00D0EDBCFC5
:101CE0000BF00F0EDBCF0CF00D6A0E6A03C00FF085
:101CF00004C010F005C011F006C012F0035004102B
:101D0000051006101BE1300E0501B36FB46B0B50CC
:101D1000E56E0A50E56E800EE56E050EE56EB30EBB
:101D2000E56E0250E56E0150E56E0050E56E62EC26
:101D300018F0136E080EE1261350ECD0095036E06F
:101D400008500A0A33E107501CE00350096E0450A2
:101D5000136E0550146E0650156ED88015AED890CF
:101D600010E3010E0D6E151C126E141C116E131C67
:101D7000106E091C0F6E0F2A04E1102A02E1114AAD
:101D8000122A075013E1D88004AED8900FE3010E59
:101D90000D6E041E036CD8B4042A03C00FF004C0F7
:101DA00010F0E86A04BEFF0E116E126E050E046E8E
:101DB000BE0E036E800E056EE56A03C0E9FF04C027
:101DC000F3FFFDEC2EF003C006F004C007F005C0E1
:101DD00009F00F50101011101210D8B45AD008C0CA
:101DE00013F0146A156A166AE56AE56AE56A135023
:101DF000E56E1250E56E1150E56E1050E56E0F5015
:101E0000E56E4AEC1CF0176EF3CF18F0F4CF19F022
:101E1000E9CF1AF0080EE126000E1A5C08E1000E68
:101E2000195C05E1000E185C02E10A0E175C06E37E
:101E30000CC01BF0C60E1B261B501726FF0E0626D5
:101E400007220922300E172617C0E5FF06C0E9FF5A
:101E500007C0F3FF0950FDEC2EF01650E56E15504B
:101E6000E56E1450E56E1350E56E1250E56E11509C
:101E7000E56E1050E56E0F50E56E0FEC1EF00F6E24
:101E8000F3CF10F0F4CF11F0E9CF12F0080EE126F5
:101E9000A0D706C003F007C004F009C005F00D503C
:101EA00021E00A5012E00BA210D02D0EE56E025078
:101EB000E56E0150E56E0050E56E9CEC1FF0040EDF
:101EC000E126010E0E6E0A060DD0FF0E0326042237
:101ED00005222D0EE56E03C0E9FF04C0F3FF055097
:101EE000FDEC2EF00B50E56E0A50E56E0550E56EE8
:101EF0000450E56E0350E56E0250E56E0150E56E4C
:101F00000050E56E62EC18F0006E080EE1260E50EF
:101F100000260050E4CF1BF0E4CF1AF0E4CF19F014
:101F2000E4CF18F0E4CF17F0E4CF16F0E4CF15F0CB
:101F3000E4CF14F0E4CF13F0E4CF12F0E4CF11F0CB
:101F4000E4CF10F0E4CF0FF0E4CF0EF0E4CF0DF0CB
:101F5000E4CF0CF0E4CF0BF0E4CF0AF0E4CF09F0CB
:101F6000E4CF08F0E4CF07F0E4CF06F0E4CF05F0CB
:101F7000E4CF04F0E4CF03F0E4CF02F0E4CF01F0CB
:101F8000E4CF00F0E4CFD9FF120000C0E5FF01C0AC
:101F9000E5FFCBEC27F0006EF3CF01F00150800F8E
:101FA000800F02E1010E005CD8A062D10150800FC9
:101FB000800F02E1080E005CD8B05AD10006FA6A20
:101FC000FB6A0034FA36E834FA36FC0BDC0FE56EB7
:101FD0001F0EFA22000EFB22E450F96EFCEF0FF008
:101FE000FFEF0FF095EF10F02CEF11F02FEF11F045
:101FF00032EF11F035EF11F038EC2AF03BD13DEC27
:102000002BF0F3CF01F00110D8A43CD0E56A400ECC
:10201000E56EA7EC14F0E652E652E56A020EE56EB4
:10202000A6EC22F0E652E652E56A400EE56EA7EC19
:1020300014F0E652E6520501A86BA96BCBEC27F031
:10204000F3CF01F0030A02E1015018E00501A951A4
:10205000800F7F0F02E1900EA85D10E20501A83FFE
:1020600001D0A92B38EC2AF0E56A050EE56EA6EC46
:1020700022F0E652E65271EC2BF0E0D70501A86B96
:10208000A96B53D03DEC2BF0F3CF01F0020A02E133
:10209000015009E03DEC2BF0F3CF01F0030A02E11F
:1020A000015001E040D0E56AA00EE56EA7EC14F007
:1020B000E652E652E56A020EE56EA6EC22F0E65222
:1020C000E652E56AA00EE56EA7EC14F0E652E65281
:1020D000010EE56EF40EE56EA6EC22F0E652E65235
:1020E0000501A86BA96BCBEC27F0F3CF01F0020A36
:1020F00002E101501AE00501A951800F7F0F02E1B2
:10210000900EA85D12E20501A83F01D0A92B38EC82
:102110002AF0E56A050EE56EA6EC22F0E652E652DC
:1021200071EC2BF0E0D7CEEC29F03DEC2BF0F3CFA7
:1021300001F00110D8A444D0E56AC00EE56EA7EC0A
:1021400014F0E652E652E56A020EE56EA6EC22F0C5
:10215000E652E652E56AC00EE56EA7EC14F0E652D0
:10216000E652010EE56EF40EE56EA6EC22F0E652A4
:10217000E6520501A86BA96BCBEC27F0F3CF01F079
:10218000020A02E1015018E00501A951800F7F0FFA
:1021900002E1900EA85D10E20501A83F01D0A92B35
:1021A00038EC2AF0E56A050EE56EA6EC22F0E65260
:1021B000E65271EC2BF0E0D70501A86BA96B5AD061
:1021C0003DEC2BF0F3CF01F0020A02E1015009E0EF
:1021D0003DEC2BF0F3CF01F0030A02E1015001E0E6
:1021E00038D0E56A600EE56EA7EC14F0E652E652D0
:1021F000E56A020EE56EA6EC22F0E652E652E56ACA
:10220000600EE56EA7EC14F0E652E6520501A86BED
:10221000A96BCBEC27F0F3CF01F0030A02E10150E8
:1022200029E00501A951800F7F0F02E1900EA85D02
:1022300021E20501A83F01D0A92B38EC2AF0E56A7C
:10224000050EE56EA6EC22F0E652E65271EC2BF09C
:10225000E0D799EC29F00ED003EC2AF00BD003EC78
:102260002AF008D0A1EC2AF005D071EC2BF002D0B6
:1022700071EC2BF0E4CF01F0E4CF00F01200D9CFE5
:10228000E5FFE1CFD9FF00C0E5FF01C0E5FF02C0D7
:10229000E5FF03C0E5FF04C0E5FF020EDBCF00F061
:1022A000030EDBCF01F0060E0024026E036A470E18
:1022B0000322046A000E042202C0F6FF03C0F7FFE7
:1022C00004C0F8FF0900F5CF02F0050E025CD8B09B
:1022D000F8D0FA6AFB6A0234FA36E834FA36FC0BB4
:1022E000F00FE56E220EFA22000EFB22E450F96E8A
:1022F00082EF11F0AFEF11F0DCEF11F009EF12F007
:1023000036EF12F0015015E0E80E0024026E036A69
:10231000460E0322046A000E042202C0F6FF03C028
:10232000F7FF04C0F8FF0900F5CF02F00250891250
:10233000C8D0E80E0024026E036A460E0322046A27
:10234000000E042202C0F6FF03C0F7FF04C0F8FF2E
:102350000900F5CF02F00250FF088916B2D00150F3
:1023600015E0E80E0024026E036A460E0322046A9A
:10237000000E042202C0F6FF03C0F7FF04C0F8FFFE
:102380000900F5CF02F002508A129BD0E80E00241B
:10239000026E036A460E0322046A000E042202C083
:1023A000F6FF03C0F7FF04C0F8FF0900F5CF02F005
:1023B0000250FF088A1685D0015015E0E80E00246F
:1023C000026E036A460E0322046A000E042202C053
:1023D000F6FF03C0F7FF04C0F8FF0900F5CF02F0D5
:1023E00002508B126ED0E80E0024026E036A460E75
:1023F0000322046A000E042202C0F6FF03C0F7FFA6
:1024000004C0F8FF0900F5CF02F00250FF088B1658
:1024100058D0015015E0E80E0024026E036A460E03
:102420000322046A000E042202C0F6FF03C0F7FF75
:1024300004C0F8FF0900F5CF02F002508C1241D021
:10244000E80E0024026E036A460E0322046A000EA0
:10245000042202C0F6FF03C0F7FF04C0F8FF090022
:10246000F5CF02F00250FF088C162BD0015015E07A
:10247000E80E0024016E026A460E0222036A000E74
:10248000032201C0F6FF02C0F7FF03C0F8FF0900F6
:10249000F5CF01F001508D1214D0016A026AE80EE6
:1024A0000026460E0122000E022200C0F6FF01C0E7
:1024B000F7FF02C0F8FF0900F5CF00F00050FF0859
:1024C0008D16E4CF04F0E4CF03F0E4CF02F0E4CFC4
:1024D00001F0E4CF00F0E4CFD9FF1200D9CFE5FF3F
:1024E000E1CFD9FF00C0E5FF01C0E5FF02C0E5FF75
:1024F00003C0E5FF04C0E5FF020EDBCF00F0030ED2
:10250000DBCF01F0060E0024026E036A470E0322A1
:10251000046A000E042202C0F6FF03C0F7FF04C0E5
:10252000F8FF0900F5CF02F0050E025CD8B0F8D034
:10253000FA6AFB6A0234FA36E834FA36FC0B4E0FBC
:10254000E56E250EFA22000EFB22E450F96EB1EF83
:1025500012F0DEEF12F00BEF13F038EF13F065EF2F
:1025600013F0015015E0E80E0024026E036A460ED7
:102570000322046A000E042202C0F6FF03C0F7FF24
:1025800004C0F8FF0900F5CF02F002509212C8D043
:10259000E80E0024026E036A460E0322046A000E4F
:1025A000042202C0F6FF03C0F7FF04C0F8FF0900D1
:1025B000F5CF02F00250FF089216B2D0015015E09C
:1025C000E80E0024026E036A460E0322046A000E1F
:1025D000042202C0F6FF03C0F7FF04C0F8FF0900A1
:1025E000F5CF02F0025093129BD0E80E0024026E49
:1025F000036A460E0322046A000E042202C0F6FF9C
:1026000003C0F7FF04C0F8FF0900F5CF02F0025045
:10261000FF08931685D0015015E0E80E0024026EE5
:10262000036A460E0322046A000E042202C0F6FF6B
:1026300003C0F7FF04C0F8FF0900F5CF02F0025015
:1026400094126ED0E80E0024026E036A460E032236
:10265000046A000E042202C0F6FF03C0F7FF04C0A4
:10266000F8FF0900F5CF02F00250FF08941658D089
:10267000015015E0E80E0024026E036A460E0322A4
:10268000046A000E042202C0F6FF03C0F7FF04C074
:10269000F8FF0900F5CF02F00250951241D0E80E84
:1026A0000024026E036A460E0322046A000E04220E
:1026B00002C0F6FF03C0F7FF04C0F8FF0900F5CF22
:1026C00002F00250FF0895162BD0015015E0E80EDD
:1026D0000024016E026A460E0222036A000E0322E3
:1026E00001C0F6FF02C0F7FF03C0F8FF0900F5CFF5
:1026F00001F00150961214D0016A026AE80E002619
:10270000460E0122000E022200C0F6FF01C0F7FFB4
:1027100002C0F8FF0900F5CF00F00050FF08961640
:10272000E4CF04F0E4CF03F0E4CF02F0E4CF01F013
:10273000E4CF00F0E4CFD9FF1200D9CFE5FFE1CF1D
:10274000D9FF00C0E5FF01C0E5FF02C0E5FF03C0FF
:10275000E5FF04C0E5FF05C0E5FF06C0E5FF07C0D3
:10276000E5FF020EDBCF00F0030EDBCF01F0040E1D
:10277000DBCF02F0050EDBCF03F0060EDBCF04F05B
:10278000070EDBCF05F0080EDBCF06F0090EDBCF1E
:1027900007F000500501E36F0150E46F0250E56F50
:1027A0000350E66F04500501E76F0550E86F0650CF
:1027B000E96F0750EA6F0501E3510501E903F4CF22
:1027C00001F0F3CF00F000500501ED6F0150EE6F06
:1027D0000501E3510501E703F4CF01F0F3CF00F069
:1027E00000500501EB6F0150EC6F0501E65105014A
:1027F000E703F3CF00F00501EE5100260050EE6F25
:102800000501E5510501E803F3CF00F00501EE51A4
:1028100000260050EE6F0501E5510501E703F4CFF6
:1028200001F0F3CF00F00501ED510026EE51012239
:102830000050ED6F0150EE6F0501E4510501E80312
:10284000F4CF01F0F3CF00F00501ED510026EE5179
:1028500001220050ED6F0150EE6F0501E4510501BA
:10286000E903F3CF00F000500501F26F0501E451D8
:102870000501E703F4CF01F0F3CF00F000500501AC
:10288000F06F0150F16F0501E3510501EA03F3CF49
:1028900000F000500501F66F0501E3510501E80362
:1028A000F4CF01F0F3CF00F000500501F46F0150B8
:1028B000F56F0501EF6B0501F36B0501EF510501A4
:1028C000EB25006E0501F0510501EC21016E0501BB
:1028D000F1510501ED21026E0501F2510501EE21D4
:1028E000036E0050EB6F0150EC6F0250ED6F035020
:1028F000EE6F0501F3510501EB25006E0501F45162
:102900000501EC21016E0501F5510501ED21026E75
:102910000501F6510501EE21036E03C0E9FF02C077
:10292000F4FF01C0F3FF0050E4CF07F0E4CF06F05E
:10293000E4CF05F0E4CF04F0E4CF03F0E4CF02F0FD
:10294000E4CF01F0E4CF00F0E4CFD9FF1200D9CFFB
:10295000E5FFE1CFD9FF00C0E5FF01C0E5FF02C000
:10296000E5FF03C0E5FF04C0E5FF05C0E5FF020E7B
:10297000DBCF00F0030EDBCF01F00150800F800FA2
:1029800002E1100E005C18E20050FF08026E000E1B
:102990000154036E02500F08026E000E03560350DE
:1029A000E56E0250E56EA4EC2BF00601026FF3CF4A
:1029B00003F6E652E65207D00050F10F0601026F0F
:1029C000FF0E0120036F00500F0F026E000E01205A
:1029D000036E800F800F02E1FF0E025C05E202C071
:1029E00004F603C005F617D00050FF08026E000E73
:1029F0000154036E02500F08026E000E035603507E
:102A0000E56E0250E56EA4EC2BF00601046FF3CFE7
:102A100005F6E652E65239EC2EF086C502F0036A5E
:102A200006010351800FF36E0350800FF35C02E147
:102A30000250025D0CE20350800FF36E0601055157
:102A4000800FF35C02E10451025CD8A06CD071EC01
:102A50002BF039EC2EF086C502F0036A0150800F8E
:102A6000F36E0350800FF35C02E10250005C28E239
:102A700099EC29F0E56A030EE56EA6EC22F0E65229
:102A8000E65271EC2BF039EC2EF086C504F0056AA5
:102A900006010351800FF36E0550800FF35C02E1D5
:102AA0000450025DD8B03CD00550800FF36E060193
:102AB0000551800FF35C02E10451045C31E233D034
:102AC0000350800FF36E0150800FF35C02E1005061
:102AD000025C26E2CEEC29F0E56A030EE56EA6EC78
:102AE00022F0E652E65271EC2BF039EC2EF086C55E
:102AF00002F0036A06010351800FF36E0350800F4A
:102B0000F35C02E10250025D0BE20350800FF36EB2
:102B100006010551800FF35C02E10451025C03E3FE
:102B200071EC2BF07AD7CFEC2DF0E4CF05F0E4CFA9
:102B300004F0E4CF03F0E4CF02F0E4CF01F0E4CFFF
:102B400000F0E4CFD9FF120000C0E5FF01C0E5FFAF
:102B5000120EE56E5BEC26F0006EE652410E00248C
:102B600006010E6F130EE56E5BEC26F0006EE6526A
:102B7000410E002406010F6F006A06010E51410A42
:102B800001E1002A0050D8B44AD006010F51410A91
:102B900001E045D0150EE56E8DEC17F0016EE652A2
:102BA000015030E1E56A1D0EE56E3FEC11F0E65292
:102BB000E652E56A320EE56EA6EC22F0E652E652E7
:102BC000010EE56E1D0EE56E3FEC11F0E652E65289
:102BD0000501AA51010A02E1AB5101E004D005014F
:102BE000AA6BAB6B07D00501AA51AB1103E1010E33
:102BF000AA6FAB6B010EE56EF40EE56EA6EC22F04B
:102C0000E652E6520501AA51010A02E1AB5101E088
:102C100003D06AEC25F089D0F5EC26F086D0005080
:102C2000D8B437D006010F51400A33E1CBEC27F07E
:102C3000F3CF01F0010A02E1015001E009D03DECBF
:102C40002BF0F3CF01F0011003E138EC2AF06DD046
:102C5000020E0501855D08E3230EE56E72EC2EF091
:102C6000E6529AEC1BF061D00501AA51AB1107E1C5
:102C7000C5EC0FF0010E0501AA6FAB6B56D0050134
:102C8000AA51010A02E1AB5101E04FD06AEC25F0F4
:102C90004CD0006A06010E51400A01E1002A0050A2
:102CA00030E006010F51410A2CE10501AC51AD1194
:102CB000D8A43BD0010EAC6FAD6B38EC2AF0010EFE
:102CC000E56E2C0EE56EA6EC22F0E652E65271ECB3
:102CD0002BF0660EE56E72EC2EF0E652E56AC80E39
:102CE000E56EA6EC22F0E652E65203EC2AF0E56A25
:102CF000640EE56EA6EC22F0E652E65271EC2BF083
:102D000014D0005012E006010F51400A0EE10501F7
:102D1000AC51AD11D8A46AEC25F031EC2CF0660A68
:102D200004E1010E0501AC6FAD6BE4CF01F0E4CF1F
:102D300000F0120000C0E5FF01C0E5FF02C0E5FFA2
:102D400003C0E5FF04C0E5FF05C0E5FFD350030B5A
:102D5000006E0050D8A491D0E56A300EE56E000EEA
:102D6000E56AE56ABCEC23F0006E040EE126180E5D
:102D70000016016AD89001320032D8900132003238
:102D8000D89001320032C40E0024016E026A460E51
:102D90000222036A000E032201C0F6FF02C0F7FF01
:102DA00003C0F8FF0900F5CF01F0E56A300EE56ECB
:102DB000E56A010EE56EBCEC23F0026E040EE1261E
:102DC0000F0E0216C00E0024036E046A460E042283
:102DD000056A000E052203C0F6FF04C0F7FF05C018
:102DE000F8FF0900F5CF00F0D8900232025006E05B
:102DF0000250020A03E00250060A1FE1E56AE56A92
:102E0000E56A0150E56EE56A7A0EE56E120EE56E32
:102E1000000EE56A05EC1AF0016EF3CF02F0F4CF74
:102E200003F0E9CF04F0080EE12604C0E9FF03C077
:102E3000F4FF02C0F3FF015063D0E56AE56AE56A7A
:102E40000050E56E050EE56EB80EE56ED80EE56E27
:102E5000000EE56A0FEC1EF0006EF3CF01F0F4CF28
:102E600002F0E9CF03F0080EE12603C0E9FF02C03B
:102E7000F4FF01C0F3FF005043D0D350030B010A0D
:102E800006E1E96AF46A800EF36EE86A39D0D3503D
:102E9000030B800F7E0F30E3D350E838070BE56A51
:102EA000E56EE56A040EE56E0BEC26F0006EF3CFDE
:102EB00001F0040EE126026AC80E0026460E012229
:102EC000000E022200C0F6FF01C0F7FF02C0F8FFAB
:102ED0000900F5CF00F00900F5CF01F00900F5CFAA
:102EE00002F00900F5CF03F003C0E9FF02C0F4FFD0
:102EF00001C0F3FF005004D0E96AF46AF36AE86A9B
:102F0000E4CF05F0E4CF04F0E4CF03F0E4CF02F027
:102F1000E4CF01F0E4CF00F01200D9CFE5FFE1CF1C
:102F2000D9FF00C0E5FF01C0E5FF02C0E5FF03C017
:102F3000E5FF020EDBCF00F0060E0024016E026AF0
:102F4000470E0222036A000E032201C0F6FF02C0F0
:102F5000F7FF03C0F8FF0900F5CF01F0050E015C93
:102F6000D8B0A4D0FA6AFB6A0134FA36E834FA36EB
:102F7000FC0B820FE56E2F0EFA22000EFB22E450AE
:102F8000F96ECBEF17F0E7EF17F003EF18F01FEF34
:102F900018F03BEF18F0E80E0024016E026A460EAE
:102FA0000222036A000E032201C0F6FF02C0F7FFEF
:102FB00003C0F8FF0900F5CF01F080500116015061
:102FC00003E0010E016E01D0016A015070D0E80EDD
:102FD0000024016E026A460E0222036A000E0322DA
:102FE00001C0F6FF02C0F7FF03C0F8FF0900F5CFEC
:102FF00001F081500116015003E0010E016E01D075
:10300000016A015054D0E80E0024016E026A460E97
:103010000222036A000E032201C0F6FF02C0F7FF7E
:1030200003C0F8FF0900F5CF01F0825001160150EE
:1030300003E0010E016E01D0016A015038D0E80EA4
:103040000024016E026A460E0222036A000E032269
:1030500001C0F6FF02C0F7FF03C0F8FF0900F5CF7B
:1030600001F083500116015003E0010E016E01D002
:10307000016A01501CD0016A026AE80E0026460E61
:103080000122000E022200C0F6FF01C0F7FF02C0BD
:10309000F8FF0900F5CF00F084500016005003E05F
:1030A000010E006E01D0006A005001D0E86AE4CF42
:1030B00003F0E4CF02F0E4CF01F0E4CF00F0E4CF7E
:1030C000D9FF1200D9CFE5FFE1CFD9FF00C0E5FF5E
:1030D00001C0E5FF02C0E5FF03C0E5FF04C0E5FF56
:1030E00005C0E5FF06C0E5FF07C0E5FF08C0E5FF36
:1030F00009C0E5FF0AC0E5FF0BC0E5FF0CC0E5FF16
:103100000DC0E5FF0EC0E5FF020EDBCF00F0030EA1
:10311000DBCF01F0040EDBCF02F0050EDBCF03F0B6
:10312000060EDBCF04F0070EDBCF05F0080EDBCF79
:1031300006F0090EDBCF07F0086A200E096E065074
:1031400022E00A6A03C00BF004C00CF005C00DF0C9
:103150000BC0E9FF0CC0F3FF0D5095EC2EF00E6E86
:103160000E5006E00A2A0B2AF3E30C4A0D2AF0D788
:1031700006500A5C02E3066A02D00A50065E07A205
:1031800002D0300E096E07B019D0076A06C00AF0E7
:103190000A5005E107C008F00AC006F00FD0095038
:1031A000E56E0250E56E0150E56E0050E56E9CEC58
:1031B0001FF0040EE126072A0A06EAD708C007F026
:1031C00003C0E9FF04C0F3FF055095EC2EF0086E34
:1031D000085012E00850E56E0250E56E0150E56EB1
:1031E0000050E56E9CEC1FF0040EE126072A032A2E
:1031F000E7E3044A052AE4D707C003F006C004F059
:1032000004500FE00950E56E0250E56E0150E56E86
:103210000050E56E9CEC1FF0040EE126032A040624
:10322000EFD7F36A0350E4CF0EF0E4CF0DF0E4CF14
:103230000CF0E4CF0BF0E4CF0AF0E4CF09F0E4CFD8
:1032400008F0E4CF07F0E4CF06F0E4CF05F0E4CFD8
:1032500004F0E4CF03F0E4CF02F0E4CF01F0E4CFD8
:1032600000F0E4CFD9FF1200E56AE56A250EE56EAD
:10327000800EE56E9FEC1EF0040EE126E56A1D0E41
:10328000E56E6EEC12F0E652E652E56A060EE56E69
:103290006EEC12F0E652E652E56A070EE56E6EEC51
:1032A00012F0E652E652E56A040EE56E6EEC12F09C
:1032B000E652E652E56A050EE56E6EEC12F0E65255
:1032C000E652010EE56E150EE56E6EEC12F0E6525A
:1032D000E652010EE56E0E0EE56E6EEC12F0E65251
:1032E000E652010EE56E0D0EE56E6EEC12F0E65242
:1032F000E652010EE56E000EE56A6EEC12F0E65243
:10330000E652E56A180EE56E6EEC12F0E652E652F1
:10331000010EE56E120EE56E6EEC12F0E652E6520C
:10332000010EE56E130EE56E6EEC12F0E652E652FB
:10333000010EE56E1D0EE56E3FEC11F0E652E65211
:10334000E56A640EE56EE4EC2CF0E652E652E56ABE
:10335000E56A0B0EE56EB80EE56EE7EC1CF0040EA8
:10336000E12605018B51E56E8A51E56E0C0EE56E86
:10337000E2EC21F0030EE12605018B51E56E8A5146
:10338000E56E0B0EE56EE2EC21F0030EE126E56A38
:10339000C80EE56EA6EC22F0E652E65285EC2CF063
:1033A00086C587F5030EE56EE80EE56EA6EC22F005
:1033B000E652E652E56A1D0EE56E3FEC11F0E6526C
:1033C000E652150EE56E8DEC17F0E652010AF9E0B3
:1033D000010EE56EF40EE56EA6EC22F0E652E65222
:1033E00005EC2CF0010EE56E1D0EE56E3FEC11F0C4
:1033F000E652E652000EE56E470EE56E300EE56EC3
:10340000D5EC2BF0030EE1261200D9CFE5FFE1CF7A
:10341000D9FF00C0E5FF01C0E5FF02C0E5FF03C022
:10342000E5FF04C0E5FF05C0E5FF06C0E5FF07C0F6
:10343000E5FF08C0E5FF09C0E5FF0AC0E5FF0BC0D6
:10344000E5FF0CC0E5FF0DC0E5FF020EDBCF00F08D
:10345000030EDBCF01F0040EDBCF02F0050EDBCF55
:1034600003F0060EDBCF04F0070EDBCF05F0080EED
:10347000DBCF06F0090EDBCF07F0D88003AED89083
:10348000086A083608500FE0031C0C6E021C0B6E15
:10349000011C0A6E001C096E092A0DE10A2A0BE1C3
:1034A0000B4A0C2A08D000C009F001C00AF002C083
:1034B0000BF003C00CF0D88007AED890006A00363D
:1034C00000500FE0071C0D6E061C036E051C026EFB
:1034D000041C016E012A0DE1022A0BE1034A0D2AA8
:1034E00008D004C001F005C002F006C003F007C018
:1034F0000DF00D50E56E0350E56E0250E56E015083
:10350000E56E0C50E56E0B50E56E0A50E56E095005
:10351000E56E0FEC1EF0016EF3CF02F0F4CF03F076
:10352000E9CF04F0080EE1260050081A085016E012
:10353000041C076E031C066E021C056E011C006E47
:10354000002A04E1052A02E1064A072A07C0E9FF2A
:1035500006C0F4FF05C0F3FF005007D004C0E9FF28
:1035600003C0F4FF02C0F3FF0150E4CF0DF0E4CF3D
:103570000CF0E4CF0BF0E4CF0AF0E4CF09F0E4CF95
:1035800008F0E4CF07F0E4CF06F0E4CF05F0E4CF95
:1035900004F0E4CF03F0E4CF02F0E4CF01F0E4CF95
:1035A00000F0E4CFD9FF1200D9CFE5FFE1CFD9FF7A
:1035B00000C0E5FF01C0E5FF02C0E5FF03C0E5FF75
:1035C00004C0E5FF05C0E5FF06C0E5FF07C0E5FF55
:1035D00008C0E5FF09C0E5FF0AC0E5FF0BC0E5FF35
:1035E0000CC0E5FF020EDBCF00F0030EDBCF01F0D5
:1035F000040EDBCF02F0050EDBCF03F0060EDBCFAF
:1036000004F0070EDBCF05F0080EDBCF06F0090E45
:10361000DBCF07F0D88003AED890086A0836085090
:103620000FE0031C0C6E021C0B6E011C0A6E001CCA
:10363000096E092A0DE10A2A0BE10B4A0C2A08D06F
:1036400000C009F001C00AF002C00BF003C00CF08A
:10365000D88007AED8900FE3071C036E061C026EDD
:10366000051C016E041C006E002A0DE1012A0BE10D
:10367000024A032A08D004C000F005C001F006C0C9
:1036800002F007C003F00350E56E0250E56E0150F2
:10369000E56E0050E56E0C50E56E0B50E56E0A507D
:1036A000E56E0950E56E4AEC1CF0006EF3CF01F0B8
:1036B000F4CF02F0E9CF03F0080EE126085016E03F
:1036C000031C076E021C066E011C056E001C046EB6
:1036D000042A04E1052A02E1064A072A07C0E9FF95
:1036E00006C0F4FF05C0F3FF045007D003C0E9FF94
:1036F00002C0F4FF01C0F3FF0050E4CF0CF0E4CFB0
:103700000BF0E4CF0AF0E4CF09F0E4CF08F0E4CF07
:1037100007F0E4CF06F0E4CF05F0E4CF04F0E4CF07
:1037200003F0E4CF02F0E4CF01F0E4CF00F0E4CF07
:10373000D9FF1200D9CFE5FFE1CFD9FF00C0E5FFE7
:1037400001C0E5FF02C0E5FF03C0E5FF04C0E5FFDF
:1037500005C0E5FF020EDBCF00F0030EDBCF01F06A
:1037600002EC21F0006EF3CF01F0F00E0601026FC3
:10377000036B0F0E0601046F056B39EC2EF086C546
:1037800002F0036A06010351800FF36E0350800FAD
:10379000F35C02E10250025D0CE20350800FF36E15
:1037A00006010551800FF35C02E10451025CD8A0D0
:1037B00062D039EC2EF0CBEC27F0F3CF03F0010A06
:1037C00002E1035001E057D086C502F0036A0150C0
:1037D000800FF36E0350800FF35C02E10250005C37
:1037E00020E264EC29F039EC2EF086C504F0056A7D
:1037F00006010351800FF36E0550800FF35C02E168
:103800000450025DD8B0BBD70550800FF36E06019F
:103810000551800FF35C02E10451045CD8B0AFD7CE
:103820002AD00350800FF36E0150800FF35C02E149
:103830000050025CD8B0A3D72FEC29F039EC2EF061
:1038400086C502F0036A06010351800FF36E035030
:10385000800FF35C02E10250025DD8B090D70350B4
:10386000800FF36E06010551800FF35C02E10451F5
:10387000025CD8B084D7E4CF05F0E4CF04F0E4CF05
:1038800003F0E4CF02F0E4CF01F0E4CF00F0E4CFA6
:10389000D9FF1200D9CFE5FFE1CFD9FF00C0E5FF86
:1038A00001C0E5FF02C0E5FF03C0E5FF04C0E5FF7E
:1038B00005C0E5FF06C0E5FF07C0E5FF08C0E5FF5E
:1038C00009C0E5FF0AC0E5FF020EDBCF00F0030EE2
:1038D000DBCF01F0040EDBCF02F0050EDBCF03F0EF
:1038E000060EDBCF04F0070EDBCF05F0080EDBCFB2
:1038F00006F0090EDBCF07F0086A04500510061029
:10390000071005E1E968F468F368E86847D0096AD8
:103910000750800BE8440A6E0A501BE1045004264D
:103920000536063607360750035C08E10650025C90
:1039300005E10550015C02E10450005C06E2D8900C
:10394000073206320532043204D0092A09C008F0D1
:10395000DFD70750035C08E10650025C05E1055023
:10396000015C02E10450005C08E30450005E055075
:10397000015A0650025A0750035AD89007320632AD
:103980000532043208C009F008060950E2E103C01C
:10399000E9FF02C0F4FF01C0F3FF0050E4CF0AF0DA
:1039A000E4CF09F0E4CF08F0E4CF07F0E4CF06F06D
:1039B000E4CF05F0E4CF04F0E4CF03F0E4CF02F06D
:1039C000E4CF01F0E4CF00F0E4CFD9FF1200D9CF6B
:1039D000E5FFE1CFD9FF00C0E5FF01C0E5FF02C070
:1039E000E5FF03C0E5FF04C0E5FF05C0E5FF06C035
:1039F000E5FF07C0E5FF020EDBCF00F0030EDBCFD3
:103A000001F0040EDBCF02F0050EDBCF03F09AECE1
:103A100016F0046EF3CF05F0F4CF06F0E9CF07F00F
:103A2000D8900732063205320432D8900732063277
:103A3000053204320350E56E0250E56E0150E56E2A
:103A40000050E56E0750E56E0650E56E0550E56ED8
:103A50000450E56E0FEC1EF0006EF3CF01F0080E7F
:103A6000E12600500501806F0150816F100E815DCD
:103A700002E1010E805D2DE2010E0501815D02E192
:103A8000010E805D04E2040E06010D6F1DD0040ED0
:103A90000501815D02E1010E805D0BE2D890050118
:103AA00081338033D89081338033050E06010D6F4A
:103AB0000BD0F00E05018017803B813B8115811BE7
:103AC0008027060E06010D6F81C5F3FF05018051A9
:103AD00002D0F36AE86AE4CF07F0E4CF06F0E4CF5F
:103AE00005F0E4CF04F0E4CF03F0E4CF02F0E4CF3C
:103AF00001F0E4CF00F0E4CFD9FF120001C0E5FFF0
:103B0000CBEC27F0F3CF01F0070A02E1015001E00E
:103B100083D005019B51800F800F02E1050E9A5D55
:103B200010E238EC2AF0E56A320EE56EA6EC22F0DF
:103B3000E652E65205019A3F01D09B2B71EC2BF027
:103B4000DFD705019B51800F800F02E1050E9A5DC2
:103B50001AE305019B51800F800F02E1090E9A5D67
:103B600012E299EC29F0E56A320EE56EA6EC22F03D
:103B7000E652E652CFEC2DF071EC2BF005019A3FA6
:103B800001D09B2BBDD705019A51090A02E19B5137
:103B900001E017D03DEC2BF0F3CF01F001100AE06B
:103BA000F5EC26F0E56A960EE56EA6EC22F0E652FC
:103BB000E652F0D771EC2BF005019A3F01D09B2B18
:103BC0009FD705019B51800F800F02E10A0E9A5D7D
:103BD00018E305019B51800F800F02E10D0E9A5DE5
:103BE00010E203EC2AF0E56A320EE56EA6EC22F054
:103BF000E652E65205019A3F01D09B2B71EC2BF067
:103C00007FD705019A510D0A02E19B5101E078D757
:103C100005019A6B9B6B74D7E4CF01F01200D9CFEA
:103C2000E5FFE1CFD9FF00C0E5FF01C0E5FF02C01D
:103C3000E5FF03C0E5FF04C0E5FF05C0E5FF06C0E2
:103C4000E5FF07C0E5FF08C0E5FF09C0E5FF0AC0C2
:103C5000E5FF0BC0E5FF0CC0E5FF0DC0E5FF020E60
:103C6000DBCF00F0030EDBCF01F0040EDBCF02F060
:103C7000050EDBCF03F0060EDBCF04F0070EDBCF23
:103C800005F0080EDBCF06F0090EDBCF07F0086A5F
:103C9000096A0A6A0B6A200E0C6E0350800BE84416
:103CA0000D6E0050002601360236033608500826F5
:103CB00009360A360B360D50D8A4088007500B5C25
:103CC00008E106500A5C05E10550095C02E1045078
:103CD000085C09E30450085E0550095A06500A5A68
:103CE00007500B5A00800C040D6E0DC00CF00D50E7
:103CF000D4E103C0E9FF02C0F4FF01C0F3FF0050AC
:103D0000E4CF0DF0E4CF0CF0E4CF0BF0E4CF0AF0F9
:103D1000E4CF09F0E4CF08F0E4CF07F0E4CF06F0F9
:103D2000E4CF05F0E4CF04F0E4CF03F0E4CF02F0F9
:103D3000E4CF01F0E4CF00F0E4CFD9FF1200D9CFF7
:103D4000E5FFE1CFD9FF00C0E5FF01C0E5FF02C0FC
:103D5000E5FF03C0E5FF04C0E5FF05C0E5FF06C0C1
:103D6000E5FF07C0E5FF020EDBCF00F0030EDBCF5F
:103D700001F0040EDBCF02F0050EDBCF03F09AEC6E
:103D800016F0046EF3CF05F0F4CF06F0E9CF07F09C
:103D90000350E56E0250E56E0150E56E0050E56E91
:103DA000E56AE56AE56A040EE56E9DEC13F0006EC7
:103DB000F3CF01F0F4CF02F0E9CF03F0080EE126D3
:103DC0000350E56E0250E56E0150E56E0050E56E61
:103DD0000750E56E0650E56E0550E56E0450E56E41
:103DE0000FEC1EF0006EF3CF01F0080EE126FF0E7F
:103DF00000260122948EAC84B8860150B06E00502B
:103E0000AF6E900EAB6EB88CAC8A9E9A9F8A9D8ADC
:103E1000F28CF28EF28CE4CF07F0E4CF06F0E4CF20
:103E200005F0E4CF04F0E4CF03F0E4CF02F0E4CFF8
:103E300001F0E4CF00F0E4CFD9FF1200D9CFE5FFC5
:103E4000E1CFD9FF00C0E5FF01C0E5FF02C0E5FFFB
:103E500003C0E5FF04C0E5FF05C0E5FF06C0E5FFC0
:103E600007C0E5FF08C0E5FF09C0E5FF020EDBCF94
:103E700000F0030EDBCF01F0040EDBCF02F0050EE5
:103E8000DBCF03F0060EDBCF04F0070EDBCF05F02F
:103E9000080EDBCF06F0090EDBCF07F00A0EDBCFF2
:103EA00008F00B0EDBCF09F00250005E0350015A00
:103EB0000650085E0750095A0950E56E0850E56E35
:103EC0000150E56E0050E56E0BEC26F0006EF3CF6E
:103ED00001F0040EE1260250045C026E0350055806
:103EE000E56E0250E56E0150E56E0050E56E18EC8F
:103EF00020F0006EF3CF01F0040EE12600500626FC
:103F00000150072207C0F3FF0650E4CF09F0E4CFC9
:103F100008F0E4CF07F0E4CF06F0E4CF05F0E4CFFB
:103F200004F0E4CF03F0E4CF02F0E4CF01F0E4CFFB
:103F300000F0E4CFD9FF1200D9CFE5FFE1CFD9FFE0
:103F400000C0E5FF01C0E5FF02C0E5FF03C0E5FFDB
:103F500004C0E5FF05C0E5FF06C0E5FF020EDBCFAC
:103F600000F0030EDBCF01F0040EDBCF02F0050EF4
:103F7000DBCF03F000500110021033E000C0E9FF76
:103F800001C0F3FF02503BEC2DF0046EF3CF05F0BF
:103F9000F4CF06F003C0E5FF04C0E9FF05C0F3FF5E
:103FA0000650FDEC2EF000C0E9FF01C0F3FF025007
:103FB0003BEC2DF0046EF3CF05F0F4CF06F0042AAD
:103FC00002E3054A062A04C0E5FF05C0F4FF06C067
:103FD000F6FF00C0E9FF01C0F3FF0250C6EC2EF06F
:103FE00016D00350E56EF2CFE5FFF29E05000C0EF1
:103FF000FD6E400EFE6E000EFF6EE4BEF28EF9C541
:10400000FBFFF8C5FAFF0501F751F96EE652E4CF60
:1040100006F0E4CF05F0E4CF04F0E4CF03F0E4CF02
:1040200002F0E4CF01F0E4CF00F0E4CFD9FF1200BA
:10403000D9CFE5FFE1CFD9FF00C0E5FF01C0E5FF23
:1040400002C0E5FF03C0E5FF04C0E5FF05C0E5FFD2
:1040500006C0E5FF07C0E5FF020EDBCF00F0030E50
:10406000DBCF01F0040EDBCF02F0050EDBCF03F057
:10407000D88001AED890046A0436045007E0011CD1
:10408000066E001C056E054A062A04D000C005F025
:1040900001C006F0D88003AED890006A0036005008
:1040A00007E0031C076E021C016E014A072A04D0B8
:1040B00002C001F003C007F00750E56E0150E56E45
:1040C0000650E56E0550E56E14EC24F0016EF3CF5A
:1040D00002F0040EE1260050041A04500AE0021C0B
:1040E000036E011C006E004A032A03C0F3FF005058
:1040F00003D002C0F3FF0150E4CF07F0E4CF06F095
:10410000E4CF05F0E4CF04F0E4CF03F0E4CF02F015
:10411000E4CF01F0E4CF00F0E4CFD9FF1200D9CF13
:10412000E5FFE1CFD9FF00C0E5FF01C0E5FF02C018
:10413000E5FF03C0E5FF04C0E5FF05C0E5FF06C0DD
:10414000E5FF020EDBCF00F0030EDBCF01F0040E23
:10415000DBCF02F000C0E9FF01C0F3FF0250A5EC85
:104160002CF0036EF3CF04F0F4CF05F0E9CF06F0A6
:104170000650E56E0550E56E0450E56E0350E56EA1
:10418000410EE56EC60EE56E4E0EE56E6D0EE56EE9
:104190009DEC13F0036EF3CF04F0F4CF05F0E9CFFC
:1041A00006F0080EE126390E0326300E0422000E1A
:1041B0000522062203C0E5FF04C0F4FF05C0F6FF98
:1041C00006C0F7FF00C0E9FF01C0F3FF025084EC16
:1041D0002EF0069E06C0E9FF05C0F4FF04C0F3FF01
:1041E0000350E4CF06F0E4CF05F0E4CF04F0E4CFD1
:1041F00003F0E4CF02F0E4CF01F0E4CF00F0E4CF2D
:10420000D9FF120000C0E5FF01C0E5FF88EC27F0F0
:10421000F3CF01F0011003E1F36AE86A60D088ECA3
:1042200027F0F3CF01F0010A02E1015001E025D0AF
:10423000E3EC2EF0006EF3CF01F00150E56E00507C
:10424000E56EE56A0F0EE56E0BEC26F0006EF3CF1F
:1042500001F0040EE126E56A0A0EE56E0150E56EF6
:104260000050E56E18EC20F0006EF3CF01F0040E64
:10427000E12601C0F3FF005032D088EC27F0F3CFE5
:1042800001F0020A02E1015001E029D0D5EC2EF044
:10429000006EF3CF01F00150E56E0050E56EE56A67
:1042A0000F0EE56E0BEC26F0006EF3CF01F0040E5E
:1042B000E126E56A0A0EE56E0150E56E0050E56EF6
:1042C00018EC20F0006EF3CF01F0040EE126005050
:1042D000FF08006E000E015601C0F3FF0050E4CF4E
:1042E00001F0E4CF00F01200D9CFE5FFE1CFD9FF14
:1042F00000C0E5FF01C0E5FF02C0E5FF03C0E5FF28
:1043000004C0E5FF05C0E5FF06C0E5FF020EDBCFF8
:1043100000F0030EDBCF01F0040EDBCF02F000C093
:10432000E9FF01C0F3FF0250A5EC2CF00501DF6F9F
:10433000F3CFE0F5F4CFE1F5E9CFE2F5800EE56EDD
:10434000050EE56EDF0EE56E8FEC20F0036EF3CF09
:1043500004F0F4CF05F0E9CF06F0030EE12603C028
:10436000E5FF04C0F4FF05C0F6FF06C0F7FF00C07C
:10437000E9FF01C0F3FF025084EC2EF000C0E9FF1A
:1043800001C0F3FF0250A5EC2CF0F3CF01F0F4CF05
:1043900002F0E9CF03F003C0E9FF02C0F4FF01C05F
:1043A000F3FFE4CF06F0E4CF05F0E4CF04F0E4CF70
:1043B00003F0E4CF02F0E4CF01F0E4CF00F0E4CF6B
:1043C000D9FF1200D9CFE5FFE1CFD9FF00C0E5FF4B
:1043D00001C0E5FF02C0E5FF03C0E5FF04C0E5FF43
:1043E000020EDBCF00F0030EDBCF01F0040EDBCFBB
:1043F00002F0025C02E1010E015C03E30168030EBE
:10440000026E010EE56E0050E56E6EEC12F0E652A3
:10441000E652CC6A05018051036E0304CB6ED8903E
:104420000230046E0130036ED89004320332030E62
:1044300001160138F00B026E00500B0A0AE0005022
:104440000C0A0DE10C0EBD6E03C0BEFF0250BD1282
:1044500006D00C0EBA6E03C0BBFF0250BA120DC6D6
:10446000CAFFE56A0050E56E6EEC12F0E652E652C5
:10447000E4CF04F0E4CF03F0E4CF02F0E4CF01F0A6
:10448000E4CF00F0E4CFD9FF1200D9CFE5FFE1CFB0
:10449000D9FF00C0E5FF01C0E5FF02C0E5FF03C092
:1044A000E5FF04C0E5FF05C0E5FF06C0E5FF07C066
:1044B000E5FF08C0E5FF020EDBCF00F0030EDBCF07
:1044C00001F0040EDBCF02F0050EDBCF03F05CEC55
:1044D0002CF0046EF3CF05F0F4CF06F0E9CF07F02F
:1044E000E86A03BEFF0E086EE56E0850E56E0350E5
:1044F000E56E0250E56E0750E56E0650E56E05501C
:10450000E56E0450E56ED4EC1AF0026EF3CF03F0C2
:10451000080EE1260050025E0150035A03C0F3FF6B
:104520000250E4CF08F0E4CF07F0E4CF06F0E4CF88
:1045300005F0E4CF04F0E4CF03F0E4CF02F0E4CFE1
:1045400001F0E4CF00F0E4CFD9FF1200D9CFE5FFAE
:10455000E1CFD9FF00C0E5FF01C0E5FF02C0E5FFE4
:1045600003C0E5FF04C0E5FF05C0E5FF020EDBCF99
:1045700000F0030EDBCF01F09AEC16F0026EF3CFE1
:1045800003F0F4CF04F0E9CF05F0D89005320432FF
:1045900003320232D8900532043203320232E56A25
:1045A000010EE56E860EE56EA00EE56E0550E56E19
:1045B0000450E56E0350E56E0250E56E0FEC1EF000
:1045C000026E080EE12600C004F001C005F0FF0EE7
:1045D000002601220450051008E00250046EFD0E72
:1045E000042604509DEC23F0EED7E4CF05F0E4CF91
:1045F00004F0E4CF03F0E4CF02F0E4CF01F0E4CF25
:1046000000F0E4CFD9FF1200D9CFE5FFE1CFD9FF09
:1046100000C0E5FF01C0E5FF02C0E5FF03C0E5FF04
:1046200004C0E5FF020EDBCF00F0030EDBCF01F08C
:10463000015003E1026A036A24D0640E015C04E3C2
:104640000268030E036E1DD005018151E56E805195
:10465000E56EE56A0150E56E0BEC26F0016EF3CFD6
:1046600004F0040EE126E56A640EE56E0450E56E82
:104670000150E56E14EC24F0026EF3CF03F0040E4B
:10468000E1260250016E01260334046ED8900136F3
:1046900004360450E56E0150E56E0050E56EE2EC24
:1046A00021F0030EE126E4CF04F0E4CF03F0E4CFE1
:1046B00002F0E4CF01F0E4CF00F0E4CFD9FF120024
:1046C0000203040601020304127A000048E8010014
:1046D00090D0030020A1070040420F0080841E00FC
:1046E00000093D0000127A000102040810204080F9
:1046F00040800102040102040820010204010204B6
:104700000810204080100101010101010101020295
:104710000202020000000000040404030303030378
:1047200003030300286E756C6C2900000A0D00005D
:104730002E5041525449544F0000E806E56E090ED0
:10474000B0EC23F0E4500BE000D0E56E090EB0ECC5
:1047500023F000D0E450000000D0E82EF6D712007D
:10476000E8060000E85007E000D000D000D000D0FC
:104770000000E82EFAD71200D9CFE5FFE1CFD9FF2C
:1047800000C0E5FF01C0E5FF02C0E5FF03C0E5FF93
:1047900004C0E5FF05C0E5FF06C0E5FF07C0E5FF73
:1047A000020EDBCF00F0030EDBCF01F0040EDBCFF7
:1047B00002F0050EDBCF03F00250046E0350056ECD
:1047C000066A076A0450F86E0150046E0250056EC6
:1047D0000350066E076A0450F76E0050F66E09002B
:1047E000F5CF00F00900F5CF01F0026A0150046E28
:1047F000036A056A005003260550042204C0F3FF33
:104800000350E4CF07F0E4CF06F0E4CF05F0E4CFA7
:1048100004F0E4CF03F0E4CF02F0E4CF01F0E4CF02
:1048200000F0E4CFD9FF1200D9CFE5FFE1CFD9FFE7
:1048300000C0E5FF01C0E5FF02C0E5FF03C0E5FFE2
:1048400004C0E5FF05C0E5FF06C0E5FF07C0E5FFC2
:10485000020EDBCF00F0030EDBCF01F0040EDBCF46
:1048600002F0050EDBCF03F0046A056A100E066E37
:104870000150800BE844076E0050002601360450BA
:10488000042605360750D8A404800350055C02E1D5
:104890000250045C05E30250045E0350055A008098
:1048A0000604076E07C006F00750E2E101C0F3FFFF
:1048B0000050E4CF07F0E4CF06F0E4CF05F0E4CFFA
:1048C00004F0E4CF03F0E4CF02F0E4CF01F0E4CF52
:1048D00000F0E4CFD9FF120014EEFFF024EEFFF059
:1048E000F86AA68EA69CBF0EE96E0E0EEA6E0068F0
:1048F000ED6A0050FDE1640EF66E5E0EF76E000E7E
:10490000F86E0900F5CF05F00900F5CF06F034D0B8
:104910000900F5CF00F00900F5CF01F00900F5CF4F
:1049200002F009000900F5CFE9FF0900F5CFEAFF21
:10493000090009000900F5CF03F00900F5CF04F0E4
:1049400009000900F6CF07F0F7CF08F0F8CF09F01B
:1049500000C0F6FF01C0F7FF02C0F8FF03D0090056
:10496000F5CFEEFF0306FBE20406F9E207C0F6FF0F
:1049700008C0F7FF09C0F8FF0506CAE20606C8E24C
:10498000B8EC2DF0FFD7D9CFE5FFE1CFD9FF00C0BC
:10499000E5FF01C0E5FF02C0E5FF020EDBCF00F03E
:1049A000030EDBCF01F0040EDBCF02F09380938285
:1049B000005013E00050010A10E1000E025C02E119
:1049C000810E015C03E32F0E006E02D02E0E006EEE
:1049D00000C0C6FF0150C86E1FD0280EC66E015021
:1049E000640A02E1025015E00150900A03E102500E
:1049F000010A0BE00150E80A03E10250030A01E05A
:104A000008D0C78E0B0EC86E07D0C79E1D0EC86E8D
:104A100003D0C78E770EC86EC56A9E96A196E4CF66
:104A200002F0E4CF01F0E4CF00F0E4CFD9FF1200B0
:104A3000D9CFE5FFE1CFD9FF00C0E5FF01C0E5FF19
:104A400002C0E5FF03C0E5FF04C0E5FF05C0E5FFC8
:104A5000020EDBCFFAF5030EDBCFFBF5040EDBCF46
:104A6000FCF5050EDBCF00F0060EDBCF01F0070EE4
:104A7000DBCF02F0080EDBCF03F0090EDBCF04F032
:104A80000A0EDBCF05F00550E56E0450E56E0350CD
:104A9000E56E0250E56E0150E56E0050E56E800E49
:104AA000E56E050EE56EFA0EE56E0EEC06F0006E94
:104AB000090EE1260050E4CF05F0E4CF04F0E4CF86
:104AC00003F0E4CF02F0E4CF01F0E4CF00F0E4CF54
:104AD000D9FF120000C0E5FF01C0E5FFCBEC27F0D5
:104AE000006EF3CF01F00150800F800F02E1010E44
:104AF000005C3AE30150800F800F02E1080E005C79
:104B000033E20006FA6AFB6A0034FA36E834FA3611
:104B1000FC0B220FE56E4B0EFA22000EFB22E45036
:104B2000F96E9FEF25F0A2EF25F0A5EF25F0A8EF95
:104B300025F0ABEF25F0AEEF25F0B1EF25F038EC26
:104B40002AF014D0CEEC29F011D099EC29F00ED037
:104B500003EC2AF00BD003EC2AF008D0A1EC2AF0E9
:104B600005D071EC2BF002D071EC2BF0E4CF01F00A
:104B7000E4CF00F01200D9CFE5FFE1CFD9FF00C0AC
:104B8000E5FF01C0E5FF02C0E5FF03C0E5FF04C08B
:104B9000E5FF05C0E5FF020EDBCFF7F5030EDBCF27
:104BA000F8F5040EDBCFF9F5050EDBCF00F0060EAD
:104BB000DBCF01F0070EDBCF02F0080EDBCF03F0F6
:104BC000090EDBCF04F00A0EDBCF05F00550E56ED1
:104BD0000450E56E0350E56E0250E56E0150E56E3F
:104BE0000050E56E000EE56AE56AE56A0EEC06F037
:104BF000006E090EE1260050E4CF05F0E4CF04F08A
:104C0000E4CF03F0E4CF02F0E4CF01F0E4CF00F012
:104C1000E4CFD9FF1200D9CFE5FFE1CFD9FF00C023
:104C2000E5FF01C0E5FF02C0E5FF03C0E5FF020E9E
:104C3000DBCF00F0030EDBCF01F0040EDBCF02F080
:104C4000050EDBCF03F000500601066F0150076F21
:104C500002500601086F0350096F06010651060154
:104C60000803F4CF01F0F3CF00F0005006010A6F03
:104C700001500B6F0601065106010903F3CF00F046
:104C80000601075106010803F3CF01F00150002689
:104C900006010B51002600500B6F0BC6F3FF0A51A3
:104CA000E4CF03F0E4CF02F0E4CF01F0E4CF00F072
:104CB000E4CFD9FF1200D9CFE5FFE1CFD9FF00C083
:104CC000E5FF01C0E5FF02C0E5FF03C0E5FF020EFE
:104CD000DBCF00F00D0E005C0BE3150E005C08E26C
:104CE000F30E0024016E0144E844FC0BC26E07D0B1
:104CF000060E005C04E20044E844FC0BC26EC28075
:104D0000090E006E016A0000FF0E0026012200500D
:104D10000110F9E1C282C2B2FED7C4CF00F0016A2D
:104D20000050036E026AC3CF00F0016A00500226F1
:104D300001500322C29003C0F3FF0250E4CF03F0FE
:104D4000E4CF02F0E4CF01F0E4CF00F0E4CFD9FFEC
:104D50001200D9CFE5FFE1CFD9FF00C0E5FF01C0C8
:104D6000E5FF02C0E5FF03C0E5FF020EDBCF00F068
:104D7000030EDBCF01F0040EDBCF02F000500B0A74
:104D800017E000500C0A25E10C0EBD6ED8900230E1
:104D9000036E0130006ED890033200320050BE6EB8
:104DA0000150006E030E00160038F00BBD1211D03A
:104DB0000C0EBA6ED8900230036E0130006ED8909F
:104DC000033200320050BB6E030E01160138F00BA7
:104DD000BA129E92E4CF03F0E4CF02F0E4CF01F0E8
:104DE000E4CF00F0E4CFD9FF120001C0E5FF3DECB5
:104DF0002BF0F3CF01F0011005E1CFEC2DF071ECB9
:104E00002BF03AD03DEC2BF0F3CF01F0010A02E198
:104E1000015009E03DEC2BF0F3CF01F0020A02E172
:104E2000015001E00CD099EC29F0E56A050EE56E21
:104E3000A6EC22F0E652E65271EC2BF0D8D73DEC0E
:104E40002BF0F3CF01F0030A02E1015009E03DEC41
:104E50002BF0F3CF01F0040A02E1015001E0C7D7C3
:104E6000CEEC29F0E56A050EE56EA6EC22F0E652DE
:104E7000E65271EC2BF0BBD7E4CF01F01200D9CF92
:104E8000E5FFE1CFD9FF00C0E5FF01C0E5FF02C0AB
:104E9000E5FF03C0E5FF04C0E5FF050ED924006E61
:104EA000000EDA20016E800E026E030E0026000E48
:104EB00001220222020ED924036E000EDA20046EB3
:104EC0000250E56E0150E56E0050E56E070EDBCF37
:104ED000E5FF060EDBCFE5FF050EDBCFE5FF800E1D
:104EE000E56E0450E56E0350E56E0EEC06F0006EC4
:104EF000090EE1260050E4CF04F0E4CF03F0E4CF44
:104F000002F0E4CF01F0E4CF00F0E4CFD9FF1200CB
:104F100000C0E5FF01C0E5FFD5EC2EF00501966F5E
:104F2000F3CF97F5E3EC2EF00501946FF3CF95F5F1
:104F300094510501965D006E050195510501975943
:104F4000E56E0050E56EA4EC2BF0006EF3CF01F09F
:104F5000E652E6520150800F800F02E1960E005C8F
:104F600003E2F36AE86A12D005019551800FF36EEF
:104F700005019751800FF35C03E196510501945DA3
:104F800003E2F36A010E02D0F36A020EE4CF01F0ED
:104F9000E4CF00F0120070EC2DF0030E0501845DEB
:104FA00006E3080E845D03E2F36A010E34D0080EB6
:104FB0000501845D06E30B0E845D03E2F36A020ED5
:104FC0002AD005018451010A08E005018451020A32
:104FD00004E005018451100A03E1F36A030E1BD0BB
:104FE000050184510B0A03E1F36A040E14D0050194
:104FF00084510E0A03E1F36A050E0DD005018451B8
:105000000C0A04E0050184510D0A03E1F36A060E5F
:1050100002D0F36A070E1200D9CFE5FFE1CFD9FF26
:1050200000C0E5FF01C0E5FF02C0E5FF020EDBCFD7
:1050300000F0016A01C002F0012A0B0E025C0BE2D3
:1050400000C002F0015005E0E86CD8900232010F78
:10505000FDE30250EFE1010E0601006F016B01500C
:1050600007E0E86CD890060100370137010FFBE339
:1050700006010051FF0F016EFF0E0121006E00C0FE
:10508000F3FF0150E4CF02F0E4CF01F0E4CF00F0F1
:10509000E4CFD9FF1200D8CFE5FFE0CFE5FFE56E02
:1050A000F3CFE5FFF4CFE5FFE9CFE5FFEACFE5FF7A
:1050B000FACFE5FFFBCFE5FFD9CFE5FFE1CFD9FF81
:1050C000F6CFE5FFF7CFE5FFF8CFE5FFF5CFE5FF3A
:1050D000F9EC28F0E4CFF5FFE4CFF8FFE4CFF7FFD9
:1050E000E4CFF6FFE4CFD9FFE4CFFBFFE4CFFAFF34
:1050F000E4CFEAFFE4CFE9FFE4CFF4FFE4CFF3FF2E
:10510000E450E4CFE0FFE4CFD8FF1000D9CFE5FFB3
:10511000E1CFD9FF00C0E5FF01C0E5FF02C0E5FF18
:1051200003C0E5FF020EDBCF00F0030EDBCF01F082
:10513000040EDBCF02F000C0E9FF01C0F3FF025014
:1051400095EC2EF0036E002A02E3014A022A035076
:105150000CE000C0E9FF01C0F3FF025095EC2EF017
:10516000E56E72EC2EF0E652E6D7E4CF03F0E4CF22
:1051700002F0E4CF01F0E4CF00F0E4CFD9FF120059
:10518000D8CFE5FFE0CFE5FFE56EF3CFE5FFF4CF45
:10519000E5FFE9CFE5FFEACFE5FFFACFE5FFFBCF7B
:1051A000E5FFD9CFE5FFE1CFD9FFF6CFE5FFF7CF98
:1051B000E5FFF8CFE5FFF5CFE5FFE4CFF5FFE4CF5E
:1051C000F8FFE4CFF7FFE4CFF6FFE4CFD9FFE4CF59
:1051D000FBFFE4CFFAFFE4CFEAFFE4CFE9FFE4CF3F
:1051E000F4FFE4CFF3FFE450E4CFE0FFE4CFD8FFD7
:1051F000100000C0E5FF01C0E5FF02C0E5FF9EAA68
:1052000027D09E9AAECF00F0050182517F0A04E0BC
:1052100005018229016E02D0010E016E0501835144
:1052200001180FE082C501F00501822B026A000E11
:105230000126050E022201C0E9FF02C0EAFF00C0FC
:10524000EFFF05018251800A03E1010E0501826F23
:10525000E4CF02F0E4CF01F0E4CF00F0120005014A
:105260008F51E56E8E51E56E0C0EE56EE2EC21F08D
:10527000030EE12605019151E56E9051E56E0B0E8E
:10528000E56EE2EC21F0030EE126E56A060EE56E1E
:105290003FEC11F0E652E652010EE56E070EE56EA8
:1052A0003FEC11F0E652E652E56A040EE56E3FEC83
:1052B00011F0E652E652010EE56E050EE56E3FEC8A
:1052C00011F0E652E652120005019151E56E90513F
:1052D000E56E0C0EE56EE2EC21F0030EE126050111
:1052E0008F51E56E8E51E56E0B0EE56EE2EC21F00E
:1052F000030EE126E56A060EE56E3FEC11F0E6527C
:10530000E652010EE56E070EE56E3FEC11F0E65237
:10531000E652E56A040EE56E3FEC11F0E652E65205
:10532000010EE56E050EE56E3FEC11F0E652E65219
:10533000120005018D51E56E8C51E56E0C0EE56E87
:10534000E2EC21F0030EE12605018D51E56E8C5152
:10535000E56E0B0EE56EE2EC21F0030EE126010E88
:10536000E56E060EE56E3FEC11F0E652E652E56A98
:10537000070EE56E3FEC11F0E652E652E56A040EC8
:10538000E56E3FEC11F0E652E652010EE56E050EB9
:10539000E56E3FEC11F0E652E652120005018D5128
:1053A000E56E8C51E56E0C0EE56EE2EC21F0030E1D
:1053B000E12605018D51E56E8C51E56E0B0EE56E13
:1053C000E2EC21F0030EE126E56A060EE56E3FEC05
:1053D00011F0E652E652010EE56E070EE56E3FEC67
:1053E00011F0E652E652010EE56E040EE56E3FEC5A
:1053F00011F0E652E652E56A050EE56E3FEC11F05B
:10540000E652E652120005018B51E56E8A51E56EB7
:105410000C0EE56EE2EC21F0030EE12605018B5146
:10542000E56E8A51E56E0B0EE56EE2EC21F0030E9F
:10543000E126010EE56E060EE56E3FEC11F0E65238
:10544000E652E56A070EE56E3FEC11F0E652E652D1
:10545000010EE56E040EE56E3FEC11F0E652E652E9
:10546000E56A050EE56E3FEC11F0E652E6521200D9
:1054700005018B51E56E8A51E56E0C0EE56EE2EC8E
:1054800021F0030EE12605018B51E56E8A51E56E90
:105490000B0EE56EE2EC21F0030EE126E56A060E46
:1054A000E56E3FEC11F0E652E652010EE56E070E96
:1054B000E56E3FEC11F0E652E652E56A040EE56E49
:1054C0003FEC11F0E652E652010EE56E050EE56E78
:1054D0003FEC11F0E652E652120005018D51E56EE7
:1054E0008C51E56E0C0EE56EE2EC21F0030EE12628
:1054F00005018D51E56E8C51E56E0B0EE56EE2EC0B
:1055000021F0030EE126E56A060EE56E3FEC11F090
:10551000E652E652E56A070EE56E3FEC11F0E65200
:10552000E652E56A040EE56E3FEC11F0E652E652F3
:10553000010EE56E050EE56E3FEC11F0E652E65207
:10554000120005018D51E56E8C51E56E0C0EE56E75
:10555000E2EC21F0030EE12605018D51E56E8C5140
:10556000E56E0B0EE56EE2EC21F0030EE126E56A36
:10557000060EE56E3FEC11F0E652E652010EE56EC6
:10558000070EE56E3FEC11F0E652E652E56A040EB6
:10559000E56E3FEC11F0E652E652E56A050EE56E67
:1055A0003FEC11F0E652E652120005018D51E56E16
:1055B0008C51E56E0C0EE56EE2EC21F0030EE12657
:1055C00005018D51E56E8C51E56E0B0EE56EE2EC3A
:1055D00021F0030EE126E56A060EE56E3FEC11F0C0
:1055E000E652E652010EE56E070EE56E3FEC11F055
:1055F000E652E652E56A040EE56E3FEC11F0E65223
:10560000E652E56A050EE56E3FEC11F0E652E65211
:10561000120005018B51E56E8A51E56E0C0EE56EA8
:10562000E2EC21F0030EE12605018B51E56E8A5173
:10563000E56E0B0EE56EE2EC21F0030EE126E56A65
:10564000060EE56E3FEC11F0E652E652E56A070EF3
:10565000E56E3FEC11F0E652E652E56A040EE56EA7
:105660003FEC11F0E652E652010EE56E050EE56ED6
:105670003FEC11F0E652E652120039EC2EF0100E1B
:105680000501865D03E3EB0E865D03E3F36AE86ADA
:1056900027D00B0E0501865D06E3410E865D03E211
:1056A000F36A010E1DD0410E0501865D06E3810EF1
:1056B000865D03E2F36A020E13D0810E0501865D5A
:1056C00006E3C10E865D03E2F36A030E09D0C10E44
:1056D0000501865D05E3F50E865D02E2F36A040EC0
:1056E000120005018B51E56E8A51E56E0C0EE56ED8
:1056F000E2EC21F0030EE12605018B51E56E8A51A3
:10570000E56E0B0EE56EE2EC21F0030EE126E56A94
:10571000060EE56E3FEC11F0E652E652E56A070E22
:10572000E56E3FEC11F0E652E652E56A040EE56ED6
:105730003FEC11F0E652E652E56A050EE56E3FECED
:1057400011F0E652E6521200D9CFE5FFE1CFD9FFC2
:1057500000C0E5FF01C0E5FF02C0E5FF03C0E5FFB3
:10576000020EDBCF00F0030EDBCF01F0D88001AEDC
:10577000D89009E30050026E0150036E031E026CC4
:10578000D8B4032A04D000C002F001C003F003C063
:10579000F3FF0250E4CF03F0E4CF02F0E4CF01F0D6
:1057A000E4CF00F0E4CFD9FF1200D9CFE5FFE1CF7D
:1057B000D9FF00C0E5FF01C0E5FF02C0E5FF020E12
:1057C000DBCF00F0030EDBCF01F0040EDBCF02F0E5
:1057D0000250E56E0150E56E0050E56E86EC28F053
:1057E000030EE126000EE56E470EE56E2C0EE56E0B
:1057F00086EC28F0030EE126E4CF02F0E4CF01F0BE
:10580000E4CF00F0E4CFD9FF120005019F51800FD3
:10581000F36E0501A151800FF35C03E1A051050176
:105820009E5D1BE205019E3F01D09F2B010EE56EA0
:10583000180EE56E3FEC11F0E652E652E56A010EF5
:10584000E56EA6EC22F0E652E652E56A180EE56E29
:105850003FEC11F0E652E652D8D705019E6B9F6BE4
:10586000120000C0E5FF01C0E5FF02C0E5FF006ACD
:10587000050182510501831917E09D9A83C501F046
:105880000501832B026A000E0126050E022201C0CB
:10589000E9FF02C0EAFFEFCF00F08351800A03E185
:1058A000010E0501836F9D8A0050E4CF02F0E4CF22
:1058B00001F0E4CF00F0120000C0E5FF01C0E5FFF9
:1058C00002C0E5FF03C0E5FF800EE56E050EE56E44
:1058D000AF0EE56E8FEC20F0006EF3CF01F0F4CF49
:1058E00002F0E9CF03F0030EE12603C0E9FF02C096
:1058F000F4FF01C0F3FF0050E4CF03F0E4CF02F067
:10590000E4CF01F0E4CF00F0120039EC2FF03FECCF
:105910002FF0C00EE56E03EC2DF0E652010EE56EA1
:1059200003EC2DF0E65239EC2FF03FEC2FF0C10ED6
:10593000E56E03EC2DF0E65208EC2FF00501866FC2
:1059400012EC2FF039EC2FF01200E8AE0AD0F3CFB2
:10595000EAFFEE50EECFF3FFEECFF4FFEECFE9FF1C
:105960001200E8BC59EF2FF0E9CFF6FFF3CFF7FFB5
:10597000F86E0900F5500900F5CFF3FF0900F5CFE7
:10598000F4FF0900F5CFE9FF1200D9CFE5FFE1CF21
:10599000D9FF00C0E5FF01C0E5FF020EDBCF00F03C
:1059A000030EDBCF01F00150E56E0050E56E010EF5
:1059B000E56EC3EC24F0030EE126E4CF01F0E4CF62
:1059C00000F0E4CFD9FF1200D9CFE5FFE1CFD9FF36
:1059D00000C0E5FF01C0E5FF020EDBCF00F0030EC3
:1059E000DBCF01F00150E56E0050E56E000EE56A78
:1059F000C3EC24F0030EE126E4CF01F0E4CF00F085
:105A0000E4CFD9FF1200D9CFE5FFE1CFD9FF00C025
:105A1000E5FF020EDBCFC9FF4CEC2EF04CEC2EF074
:105A2000006AC5BC002A0050D880E866D890006A99
:105A300000360050E4CF00F0E4CFD9FF1200F2CFDF
:105A4000EAFFF29EA69EA69CA684E9CFA9FFE4CF1A
:105A5000A8FF2AEC2FF0F4CFA8FF2AEC2FF0F6CF06
:105A6000A8FF2AEC2FF0F7CFA8FF2AEC2FF0A6947E
:105A7000EABEF28E1200E8AE08D0F3CFEAFFEE5095
:105A8000EECFF3FFEECFF4FF1200E8BC57EF2FF09C
:105A9000E9CFF6FFF3CFF7FFF86E0900F5500900E4
:105AA000F5CFF3FF0900F5CFF4FF1200000101016B
:105AB00030303030000058025E01C2015E01E80360
:105AC000FFFFFFFF00000000FFFF00003200C000EA
:105AD00001001E00000000000000000100000000A6
:105AE00039EC2FF03FEC2FF0250EE56E03EC2DF096
:105AF000E65208EC2FF00501846F1AEC2FF008EC49
:105B00002FF00501856F12EC2FF039EC2FF0120009
:105B1000F2CFF6FFF29EA69EA69CE9CFA9FFA68033
:105B2000A850A92AA680A8CFF3FFA92AA680A8CFAB
:105B3000F4FFA92AA680A8CFEAFFF6BEF28E1200D3
:105B4000F2CFEAFFF29EA69EA69CA684E9CFA9FF0B
:105B5000E4CFA8FF2AEC2FF0F4CFA8FF2AEC2FF017
:105B6000F6CFA8FF2AEC2FF0A694EABEF28E120020
:105B7000D0B202D0930ED012D350030B800F7E0F01
:105B800002E3D3A4FED7FCEC2DF045EC2FF022EC81
:105B90002FF034EC19F0A4EC15F0FDD7120005013C
:105BA0008B51E56E8A51E56E0C0EE56EE2EC21F04C
:105BB000030EE12605018B51E56E8A51E56E0B0E51
:105BC000E56EE2EC21F0030EE1261200E8AE06D00D
:105BD000F3CFEAFFEE50EECFF3FF1200E8BC55EF33
:105BE0002FF0E9CFF6FFF3CFF7FFF86E0900F5507D
:105BF0000900F5CFF3FF1200896A8A6A400E8B6EA6
:105C00008C6A8D6A926A936A949094929494949C0C
:105C1000949E956A966A806A816A826A836A846AB7
:105C20001200D9CFE5FFE1CFD9FF00C0E5FF020E9A
:105C3000DBCF00F0005004E00050010A01E1C18810
:105C4000E4CF00F0E4CFD9FF1200F2CFF6FFF29ECE
:105C5000A69EA69CE9CFA9FFA680A850A92AA68047
:105C6000A8CFF3FFA92AA680A8CFF4FFF6BEF28E34
:105C7000120085EC2CF0050186510501875D04E2D8
:105C800087510501865F07D0050186510501875DB3
:105C9000FF080501866F120000C0E5FF01C0E5FFA7
:105CA0001F0EC514006E016AC7B4012A015000120C
:105CB0000050F6E1E4CF01F0E4CF00F01200D9CFBC
:105CC000E5FFE1CFD9FF020EDBCFAFF5030EDBCF4F
:105CD000B0F5040EDBCFB1F5050EDBCFB2F5E4CFA6
:105CE000D9FF1200D9CFE5FFE1CFD9FF00C0E5FF12
:105CF000020EDBCF00F0ACA2FED700C0ADFFE4CFB8
:105D000000F0E4CFD9FF1200E8AE0BD0F3CFEAFFEA
:105D1000E4CFEEFFF4CFEEFFF6CFEEFFF7CFEEFFCE
:105D20001200E8BC5BEF2FF01200E8AE04D0F3CF16
:105D3000EAFFEE501200E8BC02EF06F0E9CFF6FFF2
:105D4000F3CFF7FFF86E0900F5501200F2CFF6FF1F
:105D5000F29EA69EA69CE9CFA9FFA680A850A92ADC
:105D6000A680A8CFF3FFF6BEF28E1200F2CFEAFFB4
:105D7000F29EA69EA69CA684E9CFA9FFE4CFA8FF29
:105D80002AEC2FF0A694EABEF28E1200E8AE09D0FB
:105D9000F3CFEAFFE4CFEEFFF4CFEEFFF6CFEEFF56
:105DA0001200E8BC5FEF2FF0120001C0E5FF0E0EFD
:105DB000E56E5BEC26F0F3CF01F0E65201C0F3FF95
:105DC000E4CF01F0120001C0E5FF0D0EE56E5BECC3
:105DD00026F0F3CF01F0E65201C0F3FFE4CF01F06B
:105DE0001200F2CFF6FFF29EA69EA69CE9CFA9FF75
:105DF000A680A850F6BEF28E1200E8AE05D0F3CF12
:105E0000EAFFE4CFEEFF1200E8BC5DEF2FF01200D6
:105E10004CEC2EF0C5869E969EA6FED79E969E962C
:105E2000C95012004CEC2EF0C58A9E96C5889EA6DD
:105E3000FED712004CEC2EF0C59A9E96C5889EA601
:105E4000FED712002F0E9212070E9612C16EBD0ED3
:105E5000C06E1200550EA76EAA0EA76EA682A6B23D
:105E6000FED7A94A0100AC5A0000800500003300AB
:105E700000004CEC2EF0C584C5B4FED712004CECEB
:105E80002EF0C580C5B0FED712000F0EC16E070EF2
:105E9000B46E12009EA6FED79E961200CB68040E2A
:105EA000CA6E1200F36A010E1200A6EF2EF025EF63
:105EB0002EF088EF2DF01FEF2DF0B6EF2EF0A0EFB3
:025EC0002DF0C3
:00000001FF
